:0200000480007A
:1000000097110010938101AC17410010130181FF7B
:10001000170500001305C5089705000093854508DE
:100020006300B502171600001306066863FAC500E0
:100030008322050023A0550011059105E3EAC5FEC2
:10004000171500001305456697050010938585FB7D
:100050001386018163FAC5008322050023A05500A1
:1000600011059105E3EAC5FE13850181938501A081
:100070006377B500232005001105E36DB5FE171564
:1000800000001305A543EF102036EF10003D392185
:0C0090000145814521206F10C03501A002
:10009C0001118545014506CE22CC26CA4AC89D26AB
:1000AC0085450545852681450945A92EBD2C2A8403
:1000BC007165014781460146A14513050520EF00F6
:1000CC00B0058567938717A068003EC6992A054539
:1000DC0005221305200345229705000093858546CC
:1000EC001305803E23880180D5241545F12695659E
:1000FC00938555140545ED2217050010130545F0A1
:10010C00EF00C079A28517050010130525F1EF004B
:10011C00E0789384018117090010130969F2170420
:10012C000010130464F383C7040091C74A85EF00E1
:10013C00E076238801801305800CEF00407B22853C
:10014C00EF00C0750545112609450126112AE1BFAE
:10015C00197106C20AC40EC612C816CA1ACC1ECE13
:10016C0022D026D22AD42ED632D836DA3ADC3EDE4B
:10017C00C2C0C6C2CAC4CEC6D2C8D6CADACCDECEBB
:10018C00E2D0E6D2EAD4EED6F2D8F6DAFADCFEDE2B
:10019C0073252034F32510340A866D2C7310153416
:1001AC0089629382028073A0023092402241B24154
:1001BC004242D2426243F243025492542255B25507
:1001CC004256D2566257F257064896482649B649C7
:1001DC00464AD64A664BF64B065C965C265DB65D87
:1001EC00465ED65E665FF65F09617300203001A043
:1001FC00B717001093870710944313F7E6FF19C144
:10020C0013E7160098C30145828089676379F5006E
:10021C00B71700109387471088C3014582807D551E
:10022C0082800DCD411106C6B7160010834705001C
:10023C009386061098428607998B137717E05D8F8B
:10024C0083471500035525008E0793F7871FD98F19
:10025C009CC2653FB2400145410182807D55828040
:10026C00B7170010938787109843C176FD16758FCA
:10027C0098C301458280B7170010938707209843D5
:10028C000605137717E0598D88C3014582809307C3
:10029C00F5FF93F7F70F09476368F702630CE50066
:1002AC008D47630EF500B7170010938747208CC35A
:1002BC0001458280B717001093878720CDBFB717F1
:1002CC0000109387C720E5B77D558280B7170010C3
:1002DC0093870720984301451367170098C38280C2
:1002EC00411106C66D37DD37B240014541018280B0
:1002FC00B74700020E059107AA977D57B746000233
:10030C0098C3369518C190C30CC18280B7C7000240
:10031C0037C70002F11761178C430843144390430D
:10032C00E39CC5FEE31AD5FE8280011106CE22CCD9
:10033C0026CA4AC84EC6732400B08564C13F2A89B8
:10034C00AE899384B4CCD93733062541B337C50075
:10035C0033873541B306F7406314F700E3F5C4FE69
:10036C00732500B063618502018D8147935515019A
:10037C00BE073E05DD8DCD25F2406244D244424994
:10038C00B24905618280B3078040018D1337140098
:10039C00B337F500BA97D9BF4111054506C622C43B
:1003AC00A12AAD37138481821C445844AA9733B5D3
:1003BC00A7003386E5002A96BE850145153F1C40F3
:1003CC0082972244B24005454101FDA0411113071B
:1003DC00803E3E0522C43354E50206C693878182D3
:1003EC008CC323A6070080C715372E86B305A4003F
:1003FC0033B4850022960145E53D2244B2400545C3
:10040C0041015DA8FD4763E0A70405473315A7002C
:10041C009347F5FF639EE500372700101447558D71
:10042C0008C7372700105443F58F5CC30145828001
:10043C00372700105443558D48C3372700101447F5
:10044C00F58F1CC7E5B77D558280B7270010A8C76C
:10045C0001458280011122CC06CE2EC62A84635817
:10046C0005009317150085831D47638DE70015461E
:10047C0097050010938545B80545EF100007130547
:10048C001400712B113FF2406244324505618280A9
:10049C0071654111014781460146A14513050520AF
:1004AC0006C69D29970700009387C7CA73905730DB
:1004BC00B2404101828082807D15914763EDA70295
:1004CC00170700101307C7BC0A053A951C41BA97C9
:1004DC00828793070008F3A747308280856793874C
:1004EC000780D5BFF3674430828085679387878800
:1004FC00DDB7F367043082807D15914763EDA70269
:10050C0017070010130707BA0A053A951C41BA974A
:10051C00828793070008F3B74730828085679387FB
:10052C000780D5BFF37744308280856793878788AF
:10053C00DDB7F377043082807D151335250082807A
:10054C0085472388F18082809C412380A7009C41B1
:10055C0085079CC18280357122CD3A840A8726CBCF
:10056C004AC94EC752C556C306CF5AC12A89AE894D
:10057C003E8A8144BA8AB377D602138B14001CC30B
:10058C001107636AD6003356D602DA84EDB7CE85EE
:10059C00528502997D14E34C8BFE254A7D5493972A
:1005AC002400D6978843930700036374AA0093072B
:1005BC007005CE853E95FD140299E39284FEFA40B7
:1005CC006A44DA444A49BA492A4A9A4A0A4B0D61A2
:1005DC00828001112AC605466C00054506CEEF0047
:1005EC00D07085476316F5003245F2400561828074
:1005FC007D55E5BF5971A2D4CAD0CECED2CCDAC8C3
:10060C00DEC6E2C486D6A6D2D6CAE6C2EAC06EDE82
:10061C002A89AE89328A3684130B5002930B9003CD
:10062C00554C03450A00631B6503930D1A00EE87B6
:10063C00930A00028146FD54FD5C138A170083C7A0
:10064C00070063E6FB04130720026362F702CE8502
:10065C00130550020299228D6E8A69A86301052246
:10066C00CE85050A029975BFBE8AD287F9B7138762
:10067C00D7FD1377F70F5946E36BE6FC170600100E
:10068C00130686A30A07329718433297028793877B
:10069C00D7F993F7F70FE36CFCFA17070010130761
:1006AC0067A78A07BA979C43BA9782875287814477
:1006BC0029452546B384A4023A8A0507BE9483478C
:1006CC00F7FF938404FD938507FDE375B6FEE3DE27
:1006DC000CF8A68CFD5451BF04401104CDBFE3D6D9
:1006EC000CF8814C59B7854649B70840CE85130D97
:1006FC00440002996A8435B71D046198832A04006A
:10070C00130D8400404063580400CE851305D002BD
:10071C00060402990580814C970D0010938D4DBAFB
:10072C005687A28763C39C06BE850008568522C6E1
:10073C00EF00703E2A8681470147A9466C001705D9
:10074C0000001305A5E0013D635890028147324734
:10075C0093C6F7FFBA9683C606001D8F8507230044
:10076C00D700E396F4FEB2471307E002858F23808F
:10077C00E700B24785073EC6B247E37DF4F6034572
:10078C000400CE8505040299C5BF03A60D0083A6FF
:10079C004D003A85BE85AD25AA8A2E84850C49B7B5
:1007AC00130D4400004009E4170400101304448B9B
:1007BC0063469003A29CFD5D03450400B38A8C4004
:1007CC0011C563C60404FD146393B405E35450F3DC
:1007DC00CE85130500020299FD1ACDBF9307D002F6
:1007EC00E38AFAFCA6852285EF003042B38DAC403B
:1007FC00EE8C63499001EE8C63D30D00814CB38C6D
:10080C009D414DBFCE8556850299FD1CDDB7CE8529
:10081C000299050455B7130D440000402286635815
:10082C000400CE851305D002029933068040A946F8
:10083C00D6876687CE854A85393B6DBD8DE6C14628
:10084C001040130D4400EDB78544CE85130500030D
:10085C000299CE85130580070299F5D01040130D2F
:10086C004400C146F1B78144CDB7A946D1BFA146DA
:10087C00C1BFCE85130550020299228DA5BDB6507D
:10088C00265496540659F649664AD64A464BB64BF8
:10089C00264C964C064DF25D6561828039712ED2E4
:1008AC0032D436D62A865410170500001305A5D26B
:1008BC00814506CE3AD83EDA42DC46DE36C61D3BD2
:1008CC00F240014521618280411106C681349307B3
:1008DC00803EB385B702B24041013387A702B3B75C
:1008EC00A7021355F700BE95C6054D8D82804111A8
:1008FC0022C426C206C6AA84C13F33049500E93738
:10090C0063778500D1373305A440E3FAA4FEB240E7
:10091C002244924441018280B7F7FA029387070878
:10092C00B3D7A702370700100145FD175CC7B707FF
:10093C0000100547D8C38280AA87370700102E8580
:10094C003386B700B70600101107A94535486393E5
:10095C00C70082808328070013930801E34C03FE31
:10096C0083C8070023A0160183C80700639AB80048
:10097C008328070013930801E34C03FE23A0060110
:10098C008507F1B7011122CC06CE2E8432C6EF00BA
:10099C00903519C522856244B245F240056169BFA4
:1009AC00F24062447D550561828079714AD00946D6
:1009BC002E8997F5FF0F9385256B22D426D24ECE28
:1009CC0052CC56CA06D6AA847144EF0010323D4A66
:1009DC00A54AF159B3178A00B3F72701B3D787009B
:1009EC0093F7F70F63EAFA029387070393F7F70F6E
:1009FC0005469305F10026857114A307F100EF005D
:100A0C00D02EE31934FDB250225492540259F249BB
:100A1C00624AD24A4561828093877703C1BF79715C
:100A2C0022D479462A8497F5FF0F938565640A854D
:100A3C0006D6EF00902C75468A850945EF00F02A02
:100A4C00A28509459D37054697F5FF0F93850562ED
:100A5C000945EF00902901A03288AA882E87D5EA93
:100A6C0063FFC50EC167636CF618B7070001E1465A
:100A7C006373F600C1463353D60097F7FF0F938785
:100A8C00E76E9A9783C7070013030002B697B30665
:100A9C00F340630BF3003397D500B357F5003318CD
:100AAC00D6005D8FB318D500135608013355C70215
:100ABC0093160801C18293D708013377C702B38517
:100ACC00A6024207D98F63FAB700C2971307F5FF46
:100ADC0063E4070163EFB7303A858D8F33D7C702D4
:100AEC00C20893D80801B3F7C702B386E602C2075F
:100AFC00B3E8F80063FBD800C2989307F7FF63E5EF
:100B0C000801791763E3D8003E874205598D81456A
:100B1C00828063F5D500814501458280C16763E819
:100B2C00F61837070001E14763F3E600C14733D8F5
:100B3C00F60017F7FF0F1307676342970347070089
:100B4C00930800023E973388E8406397E81863E403
:100B5C00B6283335C500133515008145828055C63E
:100B6C00C1676372F62613370610133717000E078A
:100B7C00B356E60097F7FF0F9387475FB69783C787
:100B8C00070093060002BA97B38EF640639FF608EF
:100B9C00B387C5409356060142064182854533D53D
:100BAC00D70213D70801B3F7D7023303C502C20724
:100BBC00D98F63FA6700C2971307F5FF63E4070147
:100BCC0063E667223A85B387674033D7D702C208FA
:100BDC0093D80801B3F7D7023306C702C207B3E8AC
:100BEC00F80063FBC800C2989307F7FF63E50801A0
:100BFC00791763E3C8003E874205598D828093368E
:100C0C00061093B616008E06BDB5814697F7FF0FFA
:100C1C009387C755B69783C7070001479306000211
:100C2C00BA97B38EF640E385F6F63318D60133D374
:100C3C00F50093560801335ED30213160801B395E1
:100C4C00D5014182B357F500CD8F13D70701B318E7
:100C5C00D5013373D302B305C60342033367670070
:100C6C00637BB70042971305FEFF636D0717637B29
:100C7C00B716791E42970D8F3355D702C207C18321
:100C8C003377D7023303A6024207D98F63FB670081
:100C9C00C2971307F5FF63E3071563F16714791522
:100CAC00C29793150E01B3876740C98DCDBD93B71D
:100CBC00061093B717008E0733D8F60017F7FF0FFF
:100CCC001307C74A429703470700930800023E9751
:100CDC003388E840E38DE8E6335EE600B396060120
:100CEC00336EDE00B3D8E500935E0E01B3D7D803A4
:100CFC0013130E01B3950501135303013357E5008C
:100D0C004D8F9356070133160601B3F8D803B3057C
:100D1C00F302C208B3E6160163FBB600F2969388A1
:100D2C00F7FF63E3C60D63F1B60CF917F2968D8EDF
:100D3C00B3D5D60342074183B3F6D603B308B30247
:100D4C00C206558F637B170172979386F5FF636913
:100D5C00C70963771709F9157297C207C16ECD8F52
:100D6C009386FEFFB3F5D70013D30701F18E4182B2
:100D7C00338ED50233071741B306D30293580E01B5
:100D8C00B385C502B695C6953303C30263F3D5008C
:100D9C00769393D605019A966363D7026305D700C1
:100DAC003E8581458280C166FD1633F7D50042072A
:100DBC00337EDE00331505017297E373E5FE138570
:100DCC00F7FF81458280B70700016377F6029356DF
:100DDC000601414745B38145054582803A85D1B529
:100DEC00B685A5BF2A8E41BDC68791B77915C29726
:100DFC00D9BB7915C297D5B19356860161479DBB76
:100E0C00797193D7450122D426D24AD04ECE56CAF8
:100E1C009394C50006D652CC5AC85EC662C493F7EA
:100E2C00F77F2A84B28AB689B18013D9F501638E13
:100E3C0007321307F07F6386E70893963400135745
:100E4C00D501558FB7068000B364D700131A35004F
:100E5C00138C17C0014B814B93D749011397C900D1
:100E6C0093F7F77F568F1354C70093D9F901BDCF71
:100E7C001307F07F638EE70E1317340093D5DA0156
:100E8C00D98D938717C03707800033E4E500139F93
:100E9C003A00B3888701014329471385180063483A
:100EAC006709B345390189472E8863C7670F7D1BD6
:100EBC000547636167116307F32EA2847A8A9A8BC4
:100ECC00B5A833EAA40063150A2E93D749011397EA
:100EDC00C90093F7F77F8144214B130CF07F894BAA
:100EEC00568F1354C70093D9F901D9F3B367540142
:100EFC00638B072C6307043622859529AA88130770
:100F0C0055FFF547138F88FF998FB3D7FA00331726
:100F1C00E40133E4E700339FEA01B3081C419388F2
:100F2C00D8C02947014313851800E35C67F7CA85CD
:100F3C0089476389FB268D476380FB3685472E885E
:100F4C006395FB34814781460147B2502254D20746
:100F5C00D58F9316F801D58F92540259F249624AF3
:100F6C00D24A424BB24B224C3A85BE8545618280B7
:100F7C00336754019308FC7F630E072405673348DD
:100F8C00390113070780136B3B00A946C285330553
:100F9C00EC0063C3662B0D430546331666011377CD
:100FAC00065359F793770624639B072C1376860810
:100FBC0063180622C16F938EFFFFB377DA01935645
:100FCC000A01B37EDF01135E0F013387D70333832E
:100FDC00D603935507013306FE021A96B295338F4A
:100FEC00C60363F365007E9FC1631386F3FF33F37F
:100FFC00C500935F0401718F718C4203B382870229
:10100C003A93C1813387860213D60201B387FF025C
:10101C00BA973E96B387F6036373E6009E974169D1
:10102C009309F9FF3377360193D30401B3F63401F6
:10103C00B3F232014207B384DE02169741823E9628
:10104C00BA95B302DE0293D70401B38ED303F692A2
:10105C009697330E7E0263F3D7014A9EC169938E35
:10106C00F9FFB3F2D701C183F297B3FED401C202E8
:10107C003309D402F69233848302135E0901B386DA
:10108C00DF02A296369EB38E7F0263738E00CE9ED5
:10109C00C16FFD1FB376FE01C2063379F901FA95D3
:1010AC00CA96369633B7E5003297338F5500BA9708
:1010BC00B335BF00BE95B336D6003336C700D18EDC
:1010CC0033B7E700135E0E01B3B7F500F2965D8FF0
:1010DC0093179F003697B3E767007697B337F00006
:1010EC0013567F01260793D67501D18FA60533EAD7
:1010FC00B70093177700B364D70063DD070013576D
:10110C001A0093771A009396F401D98F33EAD7001B
:10111C008580AA881386F83F6359C00C93777A00B0
:10112C0081CF9377FA0011476388E70013074A00D1
:10113C00B3374701BE943A8A9397740063D807007B
:10114C00B70700FFFD17FD8C138608409307E07F5F
:10115C0063CFC71293573A001397D4019396940018
:10116C005D8FB1829377F67FCDB333EAA40063072A
:10117C000A04F9C82685E52A2A86930655FF754781
:10118C00930786FF158F3357E400B396F400B364CE
:10119C00D700331AF4009307D0C0338CC740014BEF
:1011AC00814B5DB92E889307F07F8146014771BB57
:1011BC002A8A314B130CF07F8D4B79B98144114B3A
:1011CC00014C854B51B9136B1B00E2880144014F54
:1011DC000543D9B1136B2B000144014F09436DB981
:1011EC00A2847A8A9A8BCE85A1B305474DEE93885B
:1011FC00E84133161A013336C000B3981401B357C3
:10120C00EA00336616015D8E93777600B3D5E40061
:10121C0081CF9377F60011476388E7009307460068
:10122C0033B6C700B2953E86139585008547814637
:10123C000147E34C05D0D1A03D476319EB0C0148A5
:10124C00B7060800014711B31D2293065501F1475B
:10125C0013060502E3D5D7F26115014AB314A400B5
:10126C001DBF5685292213075501F1479308050226
:10127C00E3D9E7C86115014F3394AA0079B9014845
:10128C009307F07FB7060800C9B1AA8861B5930728
:10129C00F07F8146014755B901489307F07FB706A7
:1012AC00080001475DB1118F93078003E3CCE7C8B9
:1012BC00FD47E3DEE7F28557918F93060002B3D723
:1012CC00F4006308D7009388E843B3981401336A99
:1012DC001A01333640015D8E1377760081461DC3AB
:1012EC009377F600114781456389E7009307460021
:1012FC0033B6C700B335C0003E869396950013975E
:10130C00D501B1820D82518F814781B1A284568A59
:10131C008D4BCE8531B993D7450137061000130795
:10132C00F6FF93F7F77F1308E03FAA866D8F014510
:10133C00FD816353F80091C182809305E0417D5596
:10134C00E3CCF5FE930530439D8D7D45518F634A6B
:10135C00B5009387D7BE3317F70033D5B600598D38
:10136C008280130530411D8D3355A7008280C167E3
:10137C006376F5029337051093B717008E071307A2
:10138C0000021D8F3355F50097F7FF0F938707DE8B
:10139C00AA9703C507003305A7408280B707000151
:1013AC006370F502C1473355F50097F7FF0F93872C
:1013BC00E7DBAA9703C5070041473305A7408280A6
:1013CC00E1473355F50097F7FF0F938727DAAA9774
:1013DC0003C5070021473305A7408280AA858146B3
:1013EC000146014535A2411122C406C697070000EB
:1013FC009387071D2A8499C38145C92283A74181FC
:10140C0091C382972285EFF08FE1AA95AA87638515
:10141C00B70003C7070001E73385A7408280850723
:10142C00FDB7411122C42A842E85B285368623ACA1
:10143C00018006C6EFF00FD5FD576316F50083A7A4
:10144C00818191C31CC0B240224441018280411170
:10145C0022C426C21704000013042424970400009D
:10146C009384A423818C4AC006C6898401496315E0
:10147C00990217040000130444229704000093847B
:10148C00C421818C89840149631D9900B240224496
:10149C0092440249410182801C4005091104829743
:1014AC00F9B71C40050911048297F9BF411122C4F8
:1014BC0026C2170400001304441E970400009384F2
:1014CC00C41D058C06C6098411E4B2402244924422
:1014DC00410182807D1493172400A6979C43829728
:1014EC00E5B7828082806FF02F85B2862E86AA8522
:1014FC0017F5FF0F032545DC2DB72A8309CA838313
:10150C000500230073007D16050385056DFA8280A6
:10151C00011152C417FAFF0F130A4ADA22CC2A849B
:10152C0003250A0026CA4AC84EC606CEAE84B28926
:10153C003689453F138701821C4381EF93870197BE
:10154C001CC31307000001C7184323A4E7089387A3
:10155C000197D843FD4603250A0063DCE6005937A2
:10156C007D55F2406244D2444249B249224A056157
:10157C00828005CC03A88708E30308FE9318270094
:10158C00C29823A038018326081005463316E600BE
:10159C00D18E2320D81023A0280989466317D400A4
:1015AC0083264810D18E2322D810930617000A07E1
:1015BC00D4C3BA9784C73D37014565B779715EC608
:1015CC0097FBFF0F938B8BCF5AC82A8B03A50B006D
:1015DC0056CA62C466C206D622D426D24AD04ECE91
:1015EC0052CC6AC0AE8A138C0182E53D854C8324B3
:1015FC000C008DE0225403A50B00B25092540259FA
:10160C00F249624AD24A424BB24B224C924C024DA6
:10161C004561C9BDC04083A984081309F4FF0A04BD
:10162C00338A89002694E34709FC638C0A0063968D
:10163C0009007D19711A7114FDB78327CA07E39A43
:10164C0057FFD8405C407D176318270323A2240161
:10165C00EDD303AD44006388090083A609103397CA
:10166C002C01F98E89EE8297D84083270C00E31069
:10167C00A7F9E380F4FCA5BF23220400D1BF83A605
:10168C0049108325CAFF758F01E75A858297E9BFF8
:06169C002E858297D1BFEC
:1016A400747261700A00000048656C6C6F203132FE
:1016B400333134347E7E7E7E7E7E7E7E7E7E7E0AE6
:1016C4000000000043616C63756C617465642043C1
:1016D4005055204672657175656E63793A20256CA4
:1016E4007520487A200A00006D74696D65725F691F
:1016F40072715F7472696767657265640A000000DD
:101704003132343534350A00286E756C6C2900008A
:10171400307800000A0000000A50726F67616D2083
:1017240068617320657869746564207769746820DA
:10173400636F64653A000000460400F0500400F052
:10174400580400F05E0400F0660400F0720400F037
:101754007C0400F0840400F08A0400F0920400F099
:10176400320600F09A0500F0BE0700F09A0500F07A
:101774009A0500F09A0500F09A0500F0240600F09E
:101784009A0500F09A0500F0B40500F02A0600F06E
:101794009A0500F0B40500F0F80500F0F80500F033
:1017A400F80500F0F80500F0F80500F0F80500F081
:1017B400F80500F0F80500F0F80500F0DA0500F08F
:1017C400060700F03E0500F0E80500F03E0500F0D5
:1017D4003E0500F03E0500F03E0500F03E0500F039
:1017E4005A0500F03E0500F03E0500F05E0700F0EB
:1017F400380700F03E0500F03E0500F0900600F0CA
:101804003E0500F05A0700F03E0500F03E0500F0EA
:101814002C0700F000010202030303030404040480
:101824000404040405050505050505050505050568
:101834000505050506060606060606060606060648
:101844000606060606060606060606060606060634
:101854000606060607070707070707070707070718
:101864000707070707070707070707070707070704
:1018740007070707070707070707070707070707F4
:1018840007070707070707070707070707070707E4
:1018940007070707080808080808080808080808C8
:1018A40008080808080808080808080808080808B4
:1018B40008080808080808080808080808080808A4
:1018C4000808080808080808080808080808080894
:1018D4000808080808080808080808080808080884
:1018E4000808080808080808080808080808080874
:1018F4000808080808080808080808080808080864
:101904000808080808080808080808080808080853
:101914000808080800000000F80200906003009026
:10192400C803009000000000000000000000000058
:1019340000000000000000000000000000000000A3
:101944000000000000000000000000000000000093
:101954000000000000000000000000000000000083
:1019640074020090DC02009000000000000024409B
:040000058000000077
:00000001FF
